:020000040800F2
:10000000603D0020C5CB00089D3300089F330008E9
:10001000B5330008CB330008E133000800000000CE
:10002000000000000000000000000000F73300089E
:10003000F933000800000000FB330008FD3300081E
:10004000DFCB0008DFCB0008DFCB0008DFCB0008E8
:10005000DFCB0008DFCB0008DFCB0008DFCB0008D8
:10006000DFCB0008DFCB0008DFCB0008DFCB0008C8
:10007000DFCB0008DFCB00087F1300081113000856
:10008000DFCB0008DFCB0008DFCB0008DFCB0008A8
:100090001D7E0008DFCB0008DFCB00080934000814
:1000A000DFCB0008DFCB0008DFCB0008DFCB000888
:1000B00019340008DFCB0008DFCB0008DFCB0008D5
:1000C000DFCB0008DFCB0008DFCB0008DFCB000868
:1000D000DFCB0008DFCB0008BF290008DFCB00081A
:1000E000DFCB0008DFCB0008217E0008DFF80CD052
:1000F0000DF05CFD0048004775330008603D0020AE
:10010000F0B507460020059E04460546A9B1844681
:100110009EB1761E8C4212D2B04210D217F804E083
:10012000964508D1A54205D03D4443F8205007F834
:1001300004C0401C651C641CECE70020F0BD8D422F
:1001400003D2791943F82010401C43F820C0F0BDB9
:100150002DE9F04F0024A1B08B4682464FF0FF36C8
:100160004FF02009A0462746802101A80CF015FE7B
:100170002CA150460CF01CFEB0B32B4D0FE05046A6
:100180000CF016FE040009D055F837000CF022FEE2
:100190000444A4EB0A001FFA80F804E07F1C55F821
:1001A00037100029EBD120783F2804D00D2810D03B
:1001B0003D281AD034E060780D2831D1A0780A2883
:1001C0002ED105EBC700436873B101AA494601204F
:1001D0001BE060780A2823D105EBC70043681BB1F8
:1001E00001AA4946022010E01AE0601CABEB0801AE
:1001F00001AB2C22CDF80090FFF782FF014605EB02
:10020000C700436863B101AA032098470646401C13
:1002100006D006A002F028FB21B03046BDE8F08FE2
:1002200004A0F7E7415400001CFD00080D0A4F4BE5
:100230000D0A00000D0A4552520D0A0000B591B09A
:10024000402168460CF0A9FDFCA2FEA168460DF015
:1002500041FF68460CF0BEFD81B2684601F03DF8F2
:10026000002011B000BD00F077FEFCA002F0FCFA07
:10027000642002F047FA00F0C1FD00F05BFE00F0E0
:100280006BFEF6A002F0F0FA642002F03BFA00F0F8
:10029000B5FDF2A002F0E8FA00F0B0FD2DE9F04162
:1002A000C2B017468846032822D14FF4807102A8B5
:1002B0000CF073FD38680CF0DCFDC4B278680CF00B
:1002C000D8FDC5B2B8680CF0D4FDC6B2F8680CF021
:1002D000D0FDC1B20DB1012D08D10EB1012E05D155
:1002E00009B1012902D1B8F1040F04D04FF0FF3059
:1002F00042B0BDE8F081DB482B4680F828501EB3A1
:100300005FF0050280F8792001291FD05FF000021C
:1003100080F87F20012B1BD0202C13D8C484CDE97A
:1003200000612246D0A102A80DF0D4FE02A80CF074
:1003300051FD81B202A800F0D0FFC8A002F094FAEB
:1003400004F0C0FB0020D3E70922DBE70122DFE74E
:10035000082CF7D8C484CDE900612246C2A102A8C6
:100360000DF0B8FE02A80CF035FD81B202A800F035
:10037000B4FFBAA002F078FA03F07DFDE2E730B5F1
:10038000C3B000252C464FF4807102A80CF005FD87
:10039000B44890F87910092900D0012590F87F1011
:1003A000012900D10124CDE9005490F82830C28CF5
:1003B000B8A102A80DF08EFE02A80CF00BFD81B2D0
:1003C00002A800F08AFF43B0002030BD30B591B0E4
:1003D0000C461546402168460CF0DFFC28680CF0FE
:1003E00048FD10F0FF0001D0012801D1012C03D0FD
:1003F0004FF0FF3011B030BD9A4C012884F829002D
:1004000001D107F057F894F82920ADA168460DF006
:1004100061FE68460CF0DEFC81B2684600F05DFFCC
:1004200000F09AFD8DA002F01FFA642002F06AF934
:1004300000F0E4FC00B591B0402168460CF0ADFC42
:1004400088489FA190F8292068460DF043FE684631
:100450000CF0C0FC81B2684600F03FFF002000E7CE
:100460002DE9F04FCDB08B4614464FF480710CA8A7
:100470000CF093FC20680CF0FCFC00F0FF0AA06874
:100480000CF0F7FC00F0FF09E0690CF0F2FC206AC8
:100490000CF0EFFCE0680EF0B9FD0DF0B1F8054688
:1004A00020690EF0B3FD0DF0ABF8064660690EF062
:1004B000ADFD0DF0A5F88046A0690EF0A7FD0DF08A
:1004C0009FF8074660680CF0D4FCBBF1090F04D01C
:1004D0004FF0FF304DB0BDE8F08F7E490A68A2F8BA
:1004E00017A010800A68CA4650800C68384624F865
:1004F000159FA9466560A660C4F80C804546276133
:100500000DF03BF88346284600910DF036F807467B
:100510000D4630460DF031F80646884648460DF047
:100520002CF8024600200A900B460B9000990DF122
:10053000080CCDF800A08CE84C01CDE908B1CDE95C
:10054000067534F8153C628863490CA80DF0C2FDAD
:100550000CA80CF03FFC81B20CA800F0BEFE0020FD
:10056000B8E72DE9F047CCB04FF480710CA80CF03F
:1005700014FC58480468D4F82500641C0CF0FDFFF6
:1005800081468A46206A0CF0F8FF07468846E069F3
:100590000CF0F3FF05460E46A0690CF0EEFF0A468C
:1005A00000210A9102AB0B9183E8E507A08A009035
:1005B00034F8013CE28A49490CA80DF08BFD0CA8E7
:1005C0000CF008FC81B20CA800F087FE4CB00020B3
:1005D000BDE8F0870020704700B591B00020109072
:1005E000402168460CF0D9FB10A808F0ACFF10B110
:1005F0004FF0FF3035E610980CF0BFFF02460B4677
:1006000037A168460DF066FD68460CF0E3FB81B249
:10061000684600F062FE002023E630B591B00C463B
:100620001546402168460CF0B8FB28680CF021FC08
:1006300010F0FF0001D0012864D159E056312E306E
:100640002E3000000D0A67657476657220736F6640
:1006500074776172653A25730D0A00000D0A4F4BDD
:100660000D0A0000880B00200D0A7365746366672D
:100670002049443A25642C20526F6C653A25642C3D
:100680002043483A25642C20526174653A25640D54
:100690000A0000000D0A6765746366672049443AE2
:1006A00025642C20526F6C653A25642C2043483A0F
:1006B00025642C20526174653A25640D0A000000FF
:1006C0000D0A776F726B6D6F64653A2025640D0AB1
:1006D0000000000014100020140B01088C0A01080F
:1006E0000D0A616E676C653A2025660D0A000000F0
:1006F000012C07D1F84C012806D000202070C0B290
:1007000001F062FF002075E600220121104601F091
:100710003BFF0120F2E7014606E00D2A03D00A2A3A
:1007200001D000F8012B491C0A78002AF5D10021DC
:100730000170704710B514460B461068FFF7EBFFC9
:10074000012B07D106F0B6FE0223032113202268F5
:1007500006F0C8FE002010BD00B591B040216846EB
:100760000CF01BFBDD4800680CF007FF02460B464F
:10077000DBA168460DF0AEFC68460CF02BFB81B2A5
:10078000684600F0AAFD00206BE530B5C1B04FF41B
:10079000807168460CF001FB45F65A22D5A16846E7
:1007A0000DF098FC054668460CF014FB6C4620449E
:1007B000D2A10DF08FFC68460CF00CFB2044D2A1B6
:1007C0000DF088FC68460CF005FB2044AFF2941253
:1007D000D3A10DF07FFC68460CF0FCFA2044D5A3B1
:1007E000D7A2DAA10DF076FC68460CF0F3FA2044AB
:1007F000DBA2E6A10DF06EFC68460CF0EBFA421BA2
:10080000E6A1A01C0DF066FC7B20605568460CF04C
:10081000E1FA2044D1A10DF05DFC68460CF0DAFA53
:1008200081B2684600F059FD41B0002030BDF0B5FE
:10083000A9B00AF02FF907460AF024F90546A021CD
:1008400001A80CF0AAFA0D221DB10A20152101FB06
:100850000502A8A101A80DF03DFC01AEA021304683
:10086000D0A20DF01FFC044615E038680090C4F1DA
:10087000A0013019CEA27B680DF014FC0444012DB8
:1008800006D9C4F1A0013019A4A20DF00BFC044458
:100890006D1EADB20837002DE7D1C4F1A0013019AB
:1008A000C7A20DF0FFFB204481B201A800F015FDA6
:1008B0000AF006F9002029B0F0BDF0B5A9B0A021DA
:1008C00068460CF06AFA0AF029F806460AF02AF897
:1008D000071E4FF00C020ADD3146684600F09BFA15
:1008E00068460CF077FA0921C01C00FB071281A1B1
:1008F00068460DF0EFFB6D46A0212846B1A20DF031
:10090000D1FB0446308888B131462819064600F0EC
:1009100082FA30460CF05EFA0444012F06DDC4F181
:10092000A00128197DA20DF0BDFB0444C4F1A00173
:100930002819A3A20DF0B6FB204481B2684600F04E
:10094000CCFC0020B7E72DE9F047A8B08A4617464F
:10095000A02168460CF021FA1022002138680CF022
:1009600086FA044688461022002178680CF046FA80
:100970008146B8680CF07DFA0646F8680CF079FA02
:10098000054638690CF075FA07461EB115B1BAF183
:10099000050F03D04FF0FF3028B019E61FFA89F297
:1009A000204641460AF01CF8040037D0A681E581B4
:1009B000278245F65A224FA168460DF08BFB06466A
:1009C00068460CF007FA6D46284481A10DF082FBC1
:1009D00068460CF0FFF92844214600F01CFA6846EE
:1009E0000CF0F8F928447EA10DF074FB68460CF079
:1009F000F1F9821B69A1A81C0DF06CFB7B20A855A6
:100A000068460CF0E7F9284454A10DF063FB6846F2
:100A10000CF0E0F981B2684600F05FFC0020BBE713
:100A2000F0B5A9B00E461446A02168460CF0B5F901
:100A30001022002120680CF01AFA04460D46012EFF
:100A400002D04FF0FF3036E74FF6FF710020091B50
:100A5000A84104D2204629460AF009F802E0A0B2D3
:100A600009F0FAFF45F65A2222A168460DF032FB42
:100A7000074668460CF0AEF96E46304422462B46D7
:100A800058A10DF027FB68460CF0A4F9C21B43A146
:100A9000B01C0DF01FFB7B20F05568460CF09AF956
:100AA00030442EA10DF016FB68460CF093F981B28C
:100AB000684600F012FC0020FDE610B5012902D0C6
:100AC0004FF0FF3010BD10680CF0D3F94C490968A5
:100AD000A1F82F00002010BD04000020000000201D
:100AE0000D0A64697374616E63653A2025660D0AA8
:100AF000000000004A532530345800007B22496E24
:100B0000666F223A7B0D0A0022446576696365228E
:100B10003A2250444F41204E6F6465222C0D0A004A
:100B20002256657273696F6E223A222573222C0D4C
:100B30000A00000031353A31333A32370000000004
:100B40004A756C20313920323032340022427569C6
:100B50006C64223A222573202573222C0D0A000092
:100B60004457333030302043302044657669636524
:100B7000204472697665722056657273696F6E20C3
:100B800030342E30302E30300000000022447269A4
:100B9000766572223A222573227D7D0025303458F5
:100BA000000000007B22444C697374223A5B2000F1
:100BB000222530386C582530386C5822000000004F
:100BC0005D7D00007B224B4C697374223A5B000010
:100BD0007B225461674164646564223A200000000E
:100BE0007D0000007B2254616744656C6574656418
:100BF000223A20222531366C6C78227D00000000DC
:100C00001410002010B5012902D04FF0FF3010BDA4
:100C100010680CF02EF989490968A1F8310000200C
:100C200010BD10B5012902D04FF0FF3010BD106883
:100C30000CF01FF981490968A1F84100002010BD9E
:100C40002DE9F04FC7B08B4617464FF4807107A8C7
:100C50000CF0A3F838680CF00CF91FFA80FA7868E9
:100C60000CF007F91FFA80F9B8680CF002F986B2A7
:100C7000F8680CF0FEF884B238690CF0FAF81FFA44
:100C800080F878690CF0F5F885B2B8690CF0F1F8E5
:100C900081B2BBF1070F2DD1BAF1010F2AD8B9F1FA
:100CA000010F27D8012C25D8644808F0FF020068FE
:100CB00020F82B4F46800277C5820183B0F90630B9
:100CC000B0F904700096CDE90573CDE90351CDE983
:100CD0000142C37E827E5A4907A80DF0FBF907A89E
:100CE0000CF078F881B207A800F0F7FA002047B0BE
:100CF000BDE8F08F4FF0FF30F9E710B5C8B04FF402
:100D0000807107A80CF049F84C480DF10C0C0068F4
:100D1000B0F84110B0F93140B0F92F30B0F84320AD
:100D20008CE81E0090F8473030F82B2F41888DE872
:100D30000E00C37E827E424907A80DF0CBF907A8BA
:100D40000CF048F881B207A800F0C7FA48B00020BC
:100D500010BD10B5012902D04FF0FF3010BD106852
:100D60000CF087F83549096881F84700002010BD6C
:100D700010B5012902D04FF0FF3010BD10680CF003
:100D800078F82E490968A1F84300002010BD30B55D
:100D900091B00C461546402168460BF0FEFF2868CE
:100DA0000CF067F810F0FF0001D0012801D1012CF0
:100DB00002D04FF0FF30A6E4224981F82A006846AD
:100DC0000CF008F881B2684600F087FA00209AE437
:100DD00000B591B0402168460BF0DFFF19481AA119
:100DE00090F82A2068460DF075F968460BF0F2FF7E
:100DF00081B2684600F071FA00200DE4BFF34F8F16
:100E000017480168174A01F4E06111430160BFF31C
:100E10004F8F00BFFDE730B585B04A880DF1040C57
:100E20000D8ACC898B898CE83C004A6800928B68DB
:100E30000A880D490DF04EF905B030BD14100020A0
:100E40009C0B0108880B00200D0A7477725F706498
:100E50006F615F6D6F64653A2025640D0A000000C4
:100E60000CED00E00400FA05040C01082DE9F04740
:100E700088B084A001F0F8FC91A294A196A001F0A2
:100E8000F3FC9DA19EA001F0EFFC2020A44C00905B
:100E90000822B4F82F30B4F82B10A24801F0E4FC7B
:100EA000A1A0216801F0E0FCA7A0616801F0DCFCD2
:100EB000D4F89C106069CDE9000104F10801AA484A
:100EC0000EC901F0D1FCD4F83D000CF056FB814670
:100ED0008A46D4F839000CF050FB07468846D4F80F
:100EE00035000CF04AFB05460E46D4F831000CF0F4
:100EF00044FB0246208B0B46CDE905A08DE8E003BC
:100F0000B4F82D10994801F0AFFC84A001F0ACFCBE
:100F100008B05CA0BDE8F04701F0A6BC10B50346E0
:100F20000022104603E010CB521C2044D2B28A4269
:100F3000F9D310BD7A484AF6AA2182220160002125
:100F400041608160C16001614161C0F89C10A0F600
:100F50007C3118300BF008BF10B5854C02E06420DE
:100F600001F0D0FB29226E49204601F0ECFD00285B
:100F7000F5D010BD29226A497D4801F015BE10B593
:100F8000FFF7F8FF664C2068A0F52A41AA3913D074
:100F900078A001F069FCFFF7CDFFFFF7DDFFBFF39D
:100FA0004F8F78480168784A01F4E061114301608D
:100FB000BFF34F8F00BFFDE760680021401C6060F9
:100FC00072480AF05BFA94F82900012817D15449B5
:100FD000A42201F1A4000BF0C7FE51490020A43166
:100FE000634C81F8290002E0642001F08BFB4C493E
:100FF0002922A431204601F0A6FD0028F4D010BD1E
:1010000010B500F0C7F84FF4FA7001F07BFBFFF762
:10101000B6FFBDE8104029E770B5414EF08CA0F551
:101020007F41FF3901D0022400E0012400F0DBF809
:1010300000F009F95648D0F8F40A18B10021084622
:1010400000F04BF9524D8C3D686884420FD06C60C3
:1010500096F8290058B9012C02D0022C07D101E0E2
:101060000A2200E002220221002001F08DFA2878F5
:10107000002804D0BDE87040012001F0A5BA70BD81
:10108000002070472A2A2A2A2A2A2A2A2A2A2A2A91
:101090002A2A2A2A2A2A2A555742204D6F64756C1B
:1010A0006520CFB5CDB3B2CECAFD2A2A2A2A2A2A74
:1010B0002A2A2A2A2A2A2A2A2A2A2A2A2A0D0A00F7
:1010C0004A756C20313920323032340031353A31B2
:1010D000333A323700000000202020555742204D7F
:1010E0006F64756C6520B1E0D2EBCAB1BCE4202519
:1010F000732025730A00000056312E302E30000078
:10110000202020555742204D6F64756C6520C8ED36
:10111000BCFEB0E6B1BEBAC5A3BA25730D0A000085
:10112000880B0020A40C0108202020555742204D98
:101130006F64756C6520B1EAD6BECEBBA3BA25300C
:1011400032580D0A00000000202020555742204D43
:101150006F64756C6520BFAABBFAB4CECAFDA3BA92
:1011600025640D0A00000000580C0108EC0C010871
:1011700000380108C9E8B1B8CAD7B4CEC9CFB5E7BD
:101180000A0000000CED00E00400FA050004300045
:101190009000002010B54021B9480BF0FEFDB84882
:1011A000402140300BF0F9FDB5480521803001F0B9
:1011B00017FF10BD30B503460C880020250411D45C
:1011C000C4F30D0413550A88521C92B20A803F2AB8
:1011D00001D900220A800A2B04D190B240F40040C9
:1011E0000880012030BD2DE9F043A1B04FF0000987
:1011F000802168460BF0D1FD8021684601F0EBFEAE
:1012000005001CD000246E462746DFF8788214E0E3
:101210009B4A9C49305D4032891CFFF7CBFF58B197
:10122000974829464030FEF793FF9548A8F802708A
:10123000402140300BF0B1FD641CAC42E8DB21B032
:101240004846BDE8F08300B58D4891B069468030CE
:1012500001F04EFF00280AD08B4890F829100DF1BC
:10126000020001299DF8011003D0FEF771FF11B0B3
:1012700000BD01F027F9FAE72DE9F041834C0F4654
:101280000146D4F8F40A0026C21904F5AF65B2F598
:10129000AF6F08D228443A460BF066FDD4F8F40A42
:1012A0003844C4F8F40AD4F8F00A012812D1D4F86A
:1012B000F42A7AB1294675480BF056FDB4F8F40AC1
:1012C000002281B2714804F52F6401F0A5FA0020D4
:1012D000206060603046BDE8F08170B50C46054680
:1012E000FFF7CAFF21462846BDE8704001F075BEF1
:1012F00001F073BE01F04DBB30B50446002003463B
:1013000003E0CD18655D68405B1C9342F9DB30BD9E
:1013100070B54FF40036A0B0304609F0FAFC40B387
:101320005B48574A57490078FFF744FF08B3442108
:101330000EA80BF032FD534D00248DF838402A786A
:101340008DF839204E490DF13A000BF00DFD362293
:1013500011A968460BF008FD0DF1380C48489CE8CF
:101360000E00803001F090FE2C80402144480BF0AC
:1013700014FD20B03046BDE8704009F0D8BC10B56F
:101380004FF40054204609F0ACFC002808D03F4937
:101390000120C1F8F00A2046BDE8104009F0AFBCBA
:1013A00010BD0FB430B50B9C9DF80C0020709DF85B
:1013B0000D5065709DF80E00A070BDF80F00E07034
:1013C000000A20719DF811006071BDF811002A46D5
:1013D000000AA071DDF81100000CE071DDF81100C9
:1013E000000E20729DF815006072BDF81500000A0D
:1013F000A072DDF81500000CE072DDF81500000E9B
:101400002073BDF819006073000AA073DDF81B009B
:10141000E073DDF81B00000A2074DDF81B00000CEF
:101420006074DDF81B00000EA074DDF81F00E0748E
:10143000DDF81F00000A2075DDF81F00000C607544
:10144000DDF81F00000EA075BDF82300E075000A4E
:101450002076BDF825006076000AA076BDF827004A
:10146000E076000A207702212046FFF745FF6077EB
:101470009DF82A00A077281D30BC5DF814FB000001
:10148000DC130020D00C0020880B002090000020EE
:10149000F80F002010B5FEA001F0E6F9002010BD05
:1014A00010B5022801D0002010BDFDA001F0DCF92C
:1014B000BFF34F8FFC480168FC4A01F4E06111431F
:1014C0000160BFF34F8F00BFFDE7008870470188C0
:1014D000408801EB0040704710B5002306E000BFD4
:1014E00030F8134021F813405B1C9BB29342F7D3B2
:1014F00010BD2DE9F0414FF0006516460F46044639
:10150000A8421DD3EA4904EB4600884218D209F0EC
:10151000AAFCA4F10060C00A05EBC02009F0DEFCC3
:10152000002507E037F8151004EB450009F099FD98
:101530006D1CADB2B542F5D3BDE8F04109F09FBCDA
:10154000BDE8F081F0B500242546D3074FF0FF3702
:1015500034D12FE0035DA3F13006092E01D8F6B295
:101560000BE0A3F14106052E01D8373B04E0A3F1BF
:101570006106052E22D8573BDEB203195B78A3F132
:10158000300CBCF1090F02D80CF0FF030DE0A3F101
:10159000410CBCF1050F01D8373B05E0A3F1610C0C
:1015A000BCF1050F0AD8573BDBB243EA06134B5593
:1015B000A41C6D1C9442CDDB0020F0BD3846F0BD6C
:1015C00030B5002414E0035DA3F13005092D01D8E6
:1015D0000D550BE0A3F14105052D01D8373B04E083
:1015E000A3F16105052D01D8573B0B55641CE4B2EE
:1015F0009442E8D30023184609E05B1CDBB2CC5CC4
:101600005B1C44EA04140C54401CDBB2C0B293428D
:10161000F3D900220A5430BDF0B5ADF2044D0D46A9
:1016200006464FF480671446394668460BF0B5FB12
:10163000394668460BF0B1FB30460BF0CBFB024657
:10164000A04203DB2246314668460AE00020694694
:10165000A31A01E00D54401C8342FBDC0819801AD8
:1016600031460BF081FB68460DF2044DF0BD2DE9CB
:10167000F84F0D46002857D0012855D0DFF834A286
:101680000323072701248C4E4FF0100C0AF10408A5
:101690004FF4A02202281CD0032845D1272D43D285
:1016A00056F8251000293FD00878012856D0022886
:1016B0003AD100219146104603F0D5FB56F825108B
:1016C000C968072901EB410159D304FA01F2024329
:1016D00058E0272D28D256F82510002924D0087864
:1016E000012811D002281FD100219146104603F095
:1016F000BAFB56F82510C968072901EB410115D33B
:1017000004FA01F2024314E04C680D89ADF8005070
:101710008DF803C08DF802306946204609F01FFE9F
:101720002946204609F08BFEBDE8F88F8F4020EA5D
:1017300007020021484603F0B4FB00221146504640
:1017400003F0AFFB00214746404603F08CFB56F800
:101750002510097B8C4020EA040227E04C680D89A3
:10176000ADF800508DF803C08DF802306946204670
:1017700009F0F5FD2946204609F05FFED4E78F40C9
:1017800020EA07020021484603F08BFB00221146A5
:10179000504603F086FB00214746404603F063FBBA
:1017A00056F82510097B04FA01F202433846BDE8D9
:1017B000F84F002103F075BB2DE9FF411C4615468B
:1017C0000ECB3EA001F050F8002001900290039053
:1017D000032D05D0294642A001F046F8BDE8FF815F
:1017E00020680BF0F7FA0828206804D2082230217C
:1017F000FFF712FF20600BF0EDFA024601A9206806
:10180000FFF7A0FE20680BF0E5FA024638A0216839
:1018100001F02AF89DF8070000909DF806309DF829
:1018200005209DF8041036A001F01EF860680BF04A
:10183000D1FA0828606804D208223021FFF7ECFEB4
:1018400060600BF0C7FA024602A96068FFF77AFEF3
:1018500060680BF0BFFA024630A0616801F004F83E
:101860009DF80B0000909DF80A309DF809209DF826
:1018700008102EA000F0F8FFA0680BF0ABFA0828C3
:10188000A06804D208223021FFF7C6FEA0605BE00A
:101890004457333030302D3030310D0A0000000015
:1018A0000D0A4F4B0D0A00000CED00E00400FA0594
:1018B0000000080808000500EC0E00206172677641
:1018C0005B305D3A25732C617267765B315D3A253A
:1018D000732C617267765B325D3A25730D0A0000E6
:1018E0006572726F7220617267633A25640D0A0037
:1018F000617267765B305D3A25732C25640D0A00B2
:101900006770696F5374617465313A25782C257856
:101910002C25782C25780D0A00000000617267766E
:101920005B315D3A25732C25640D0A006770696F81
:101930005374617465323A25782C25782C25782CDF
:1019400025780D0A00000000082203A9FFF7FAFD20
:10195000A0680BF03FFA0246FEA0A16800F084FFE9
:101960009DF80F0000909DF80E309DF80D209DF819
:101970000C10FCA000F078FF0425002401AFC4F196
:101980000306385D6E4300F00300F1B2FFF76FFE0F
:10199000385D711CC0F38100C9B2FFF768FE385D85
:1019A000B11CC0F30110C9B2FFF761FE385DF61C2F
:1019B0008009F1B2FFF75BFE641CE4B2042CDED3B5
:1019C000002402AFC4F10306385D6E4306F1100136
:1019D00000F00300C9B2FFF74AFE385D06F11101BD
:1019E000C0F38100C9B2FFF742FE385D06F1120173
:1019F000C0F30110C9B2FFF73AFE385D1336800913
:101A0000F1B2FFF734FE641CE4B2042CDAD30024F4
:101A100003AFC4F10306385D6E4306F1200100F008
:101A20000300C9B2FFF723FE385D06F12101C0F3C0
:101A30008100C9B2FFF71BFE385D06F12201C0F339
:101A40000110C9B2FFF713FE385D23368009F1B2E9
:101A5000FFF70DFE641CE4B2042CDAD3BEE670B5C9
:101A600014460D4602280FD003280DD10121084647
:101A70000AF011F80121C24809F000FD00212346B7
:101A80002A460846FFF798FE002070BD2DE9F04F6A
:101A9000A1B002F026FBBBA000F0E6FE002402F09D
:101AA00057FA02F009FA022002F0FBF94FF0FF3B6F
:101AB0004FF47A7607E0022002F0F3F9641CB44296
:101AC00001DDB5A0A6E004F0C6FD0028F3D0B6A065
:101AD00000F0CAFE002003F0A0FA401C0ED0B5A012
:101AE00000F0C2FE032004F0C9FEB7A000F0BCFE67
:101AF000B94803F063FE18B1B8A08BE0BCA089E040
:101B0000C0A000F0B1FE05F09BF8DFF8CC82A8F190
:101B1000A408454688F8000003F00DFB0446024681
:101B200095F90010BBA000F09FFE1CB1C2A000F010
:101B30009BFE80E00024A146EA460020494652462A
:101B4000641C1154401C7F28FBDB002004F06AFF5A
:101B5000BFA000F089FE0025C14F07E0022002F07F
:101B6000A0F96D1CB54201DDBEA053E00021442068
:101B700003F079F93842F1D0400465D5BDA000F0FA
:101B800073FE00214C2003F06EF9C0F309017F2998
:101B900008D80022684604F020F89DF80110BCA087
:101BA00000F062FE04F07EF80BF007FC6FF0190203
:101BB0000BF0C8FB0022BC4B0BF0E3FA0BF020FD4E
:101BC00005460BF0DAFC02460B46B8A000F04CFECE
:101BD000B5F17E5F02DC15F1814F21D9BB49284662
:101BE0000BF0ACF90746454698F900000BF0C1FB35
:101BF00039460BF09DF90BF01EFC00F03F002870F9
:101C000005F015F895F90010B1A000F02DFEC82CD4
:101C100013DDBBA000F028FE584621B0BDE8F08FD0
:101C20001E21444698F9000003F033FB94F900109C
:101C3000B9A000F019FE0020EFE74FF48042002128
:101C4000442003F02EF978E7BEA000F00DFEC34A51
:101C5000F5E710B5022804D1FFF718FF08B10120FD
:101C600010BD002010BD2DE9F05F002402F070F9D6
:101C700002F022F9022002F014F94FF0FF3B4FF47A
:101C80007A7807E0022002F00CF9641C444501DD7B
:101C900041A03FE004F0DFFC0028F3D0002003F077
:101CA000BCF9401C05D04C4803F088FD18B14BA08E
:101CB00030E0ABA02EE0012004F045FF012004F04D
:101CC0002AFC454C0125DFF8A4A24FF00009A43CF2
:101CD00001E0A7A01EE00020524649461154401CD6
:101CE0007F28FBDBA54A00201154401C2528FBDB84
:101CF000A248742174380BF050F8002004F092FED2
:101D00000026574F0BE0022002F0CBF8761C464528
:101D100005DD54A000F0A8FD5846BDE8F09F002165
:101D2000442003F0A0F838426060ECD0A088400462
:101D30000ED54FF480420021442003F0B2F8002178
:101D40004C2003F090F8C0F3090161807F2917E16E
:101D50005EE10000617267765B325D3A25732C2587
:101D6000640D0A006770696F5374617465333A25B6
:101D7000782C25782C25782C25780D0A0000000079
:101D80000004300072785F776974685F7874616C02
:101D90005F7472696D0D0A0049444C455F524320DF
:101DA0006572726F720D0A0049444C455F52430DD3
:101DB0000A0000006477745F696E697469616C6918
:101DC00073650D0A000000006477745F7365746CBE
:101DD0006564730D0A000000880F0020434F4E46D3
:101DE0004947204641494C454420202020200000FE
:101DF000494E4954204641494C454420202020204A
:101E0000000000006477745F636F6E6669677572C7
:101E1000650D0A007543757272656E745472696D52
:101E20005F76616C3A25642C587472696D466C67F4
:101E30003A25640D0A000000616C726561647920C6
:101E400063616C6962726174696F6E0D0A000000F3
:101E50006477745F7278656E61626C650D0A00006C
:101E600000D0052472785F74696D65206F75740DFC
:101E70000A0000005359535F5354415455535F5265
:101E8000584643475F4249545F4D41534B0D0A004A
:101E90004672616D6520526563656976656420737D
:101EA00065713A25640A000080842E4161646A7578
:101EB0007374696E6720207874616C4F6666736511
:101EC000745F70706D3A25660D0A00007BC7543F41
:101ED00061646A757374696E67206477745F736593
:101EE000747874616C7472696D2075437572726573
:101EF0006E745472696D5F76616C3A25640D0A00E8
:101F000061646A757374696E6720636F756E74209F
:101F10006F75740D0A000000656E64206477745F4D
:101F20007365747874616C7472696D207543757231
:101F300072656E745472696D5F76616C3A25640DDA
:101F40000A0000005359535F5354415455535F41A5
:101F50004C4C5F52585F4552520D0A0000900524C8
:101F6000494E4954204641494C454400B41500208F
:101F7000636F756E74206F75740D0A00C0160020B3
:101F800003D80022F74803F028FEF648983003F003
:101F9000F6FEF44C25219834B4F840008009801EE8
:101FA00082B204F17400303403F044FE608A0BF016
:101FB00015FA00224FF080430DF09EF90646208866
:101FC0000D4640050BF00AFA32462B460BF04BF952
:101FD0000BF016FB0DF0B6F8E3490AF0AFFF0BF07B
:101FE000CCFAE24AE24B0BF0C6F80BF009FB0BF01F
:101FF000C4FA02460B46DFA000F036FC218BE1A0BC
:1020000000F032FC218EE3A000F02EFC002084E6DC
:10201000E44A0021442002F044FFD248803004F01A
:10202000A5FD6D1CC82D7FF753AE52E610B50228F2
:1020300004D1FFF718FE08B1012010BD002010BD2B
:10204000F0B5002506462C4606E0355D202D01D072
:10205000092D03D1641CA4B28C42F6D300230120C5
:102060002D2D1BD1801E17E0355DA5F13007092FFE
:1020700003D803FB0253303B0EE0A5F16107052FA7
:1020800003D803FB0253573B06E0A5F14107052F98
:1020900006D803FB0253373B641CA4B28C42E3D343
:1020A0005843F0BD7CB50D4606464FF0FF3401F0B5
:1020B0004FFF01F001FF022001F0F3FE15B1012DE9
:1020C00006D01CE002223146002004F083F916E01D
:1020D0000020009002226946019004F07BF90098EC
:1020E00008B9019808B1214606E0022231460020D5
:1020F00003F0DEF804460146ABA000F0B5FB204635
:102100007CBDF0B58BB01646022804D00021032810
:1021100002D001286FD09CE0059106910791002420
:1021200030680AF057FE0C2866D105AF012501E0A2
:10213000052C20D2326812F81400A0F130010929D0
:1021400005D91139052902D92039052954D805EBBB
:102150004403D15CA1F1300CBCF1090F07D9A1F106
:10216000410CBCF1050F02D96139052974D88DF8ED
:102170001C00D05C1EE0326812F81400A0F130019F
:10218000092905D91139052902D92039052963D82A
:1021900005EB440C12F80C10A1F13003092B05D902
:1021A000113B052B02D96139052955D88DF81C0042
:1021B00012F80C008DF81D001022022107A8FFF76D
:1021C0003FFF3855641CE4B2062CB1D39DF81800CB
:1021D00001AC9DF81B309DF81A209DF8191084E879
:1021E0000F009DF8170000909DF816309DF81520FF
:1021F0009DF8141001E015E02EE06EA000F034FB15
:102200009DF817100598BDF8182061F31F6008901D
:10221000014671A0099200F027FB012108A8FFF7F1
:1022200041FF16E003910491002103A8FFF73AFF54
:102230009DF80F009DF811209DF810108DE8070003
:102240009DF80E309DF80D209DF80C1066A000F052
:102250000BFB00200BB0F0BD0120FBE770B590B088
:1022600016460D46022826D0684C032802D00128C5
:1022700024D020E0402168460AF08FFD30680AF043
:10228000F8FD10F0FF0001D0012807D1012D05D184
:1022900084F82900012801D105F00CF994F82920CF
:1022A0005BA168460BF016FF68460AF093FD81B209
:1022B0006846FFF712F810B0002070BD4021684654
:1022C0000AF06BFDEAE700B591B0402168460AF0DC
:1022D00064FD4E484EA190F8292068460BF0FAFEA6
:1022E00068460AF077FD81B26846FEF7F6FF11B046
:1022F000002000BD002070472DE9F04FADF57B7D3B
:102300008A4681464FF0FF364FF0FA0800244FF41A
:102310007A7168460AF041FD42A148460AF048FD3C
:10232000002818D0404D00BF55F8341048460AF038
:102330003FFD070010D055F834000AF04BFD38443B
:10234000A0EB09018AB2092C05D201783F296ED091
:1023500031B13D297BD0AAE0641C092CE4D3A6E06E
:102360006DE064E0B415002000002041CDCCCCCC61
:10237000CC6C5E407369675F706F7765723A2566F3
:102380000D0A0000737473506F7765723A25640DFF
:102390000A00000073747332506F7765723A2564D7
:1023A0000D0A0000009005246572723A25640D0A3A
:1023B000000000006D61635F746D703A25782C2514
:1023C000782C25782C25782C25782C25782C2578A8
:1023D0002C25780D0A00000065756936343A257899
:1023E0002C25780D0A0000005557424D41433A25EF
:1023F00030327825303278253032782530327825E1
:10240000303278253032780D0A000000880B002029
:102410000D0A776F726B6D6F64653A2025640D0A43
:102420000000000041540000980F00200FE005EB71
:10243000C4004368DBB36A464146012034E005EB43
:10244000C40043689BB36A46414602202CE0BAEBC5
:1024500002074FF000024FF02C09EB46C24613462C
:10246000944600F1010003D00121E646009013E0FC
:10247000614613E010F80280C84503D100F802E07D
:10248000012308E03BB100EB02084BF82180002358
:10249000491C514502D2521CBA42EBD305EBC40091
:1024A000436823B15A4603209847060007D018A076
:1024B00000F0DAF90DF57B7D3046BDE8F08FAFF620
:1024C0002040F5E72DE9F0410C4607463E194FF054
:1024D000FF3016F8021C0D2917D116F8011C0A2925
:1024E00013D1042C11D3002504E0795D0BA000F07A
:1024F000BBF96D1CA542F8DB002006F8020CA41EF7
:10250000A1B23846BDE8F041F6E6BDE8F081000032
:102510000D0A4552524F520D0A000000256300007B
:102520005B4A052818D2DFE800F0140F0F0F1400E3
:1025300002210BE001290FD1022102E001290BD178
:102540000021104608F07BBF0029F7D1104608F0A3
:1025500074BF0029EED1EBE7704708B501210420D4
:1025600009F099FA0220ADF8000010208DF8030060
:1025700003208DF802006946454808F0F0FE01216D
:102580000420FFF7CDFF08BD10B5424B02290DD046
:10259000042804D003F82010FFF7C2FF10BD00226A
:1025A000521C03F82010042AFADBF5E728B10128B1
:1025B00003D0022801D00328F0D1022103F8201013
:1025C00003EB8000428010BD70B5334E4FF4A02362
:1025D000351D48B32F4CA41E2078042811D20022A8
:1025E0001146184602F05DFC00221146304602F00A
:1025F00058FC2078012282400021284602F051FC3C
:1026000003E000210846FFF78BFFC82000F07AF8AE
:102610002078052801D2401C04E001210020FFF7AA
:102620007FFF0020207070BD0F220021184602F0AD
:1026300038FC0F220021304602F033FC0022114604
:10264000284602F02EFCBDE870400A22022100203C
:102650009AE770B50F4D0646002400BF15F8240018
:10266000022811D105EB84004088B6FBF0F100FB95
:10267000116149B9B6FBF0F0C007E0B201D000210A
:1026800000E00121FFF74CFF641C042CE6DB70BD69
:1026900000080140E20F00200800050010B54FF4CB
:1026A000407008F017FA00F052F800F04BFAFEF70D
:1026B00061FC134C94F82900FF2801D018B104E004
:1026C000002084F82900FFF748FF00F08FF900F0A0
:1026D00008FB94F82900002811D100F071FC94F84F
:1026E000290000280BD100F003FB94F829000028F2
:1026F00005D100F03DFBBDE8104006F056BE10BD10
:10270000880B0020424908604FF0E020026942F047
:102710000102026108680028FCD170473C4801684A
:10272000002902D00168491E0160704708B51C20CD
:102730008DF800000B208DF8010000208DF80200BC
:1027400001208DF80300684608F0C9F908BDFEB500
:1027500030484FF47A710068B0FBF1F0401EB0F1E0
:10276000807F42D24FF0E024606167170F21384626
:1027700000F03EF80025A5610726266105213846B0
:1027800000F036F80121084609F08EF940F2E730F2
:10279000ADF8040041F61F40ADF800004FF0804452
:1027A000ADF80650ADF802506946204609F094FB9A
:1027B00001221146204609F04DFE0121204609F074
:1027C00034FEFFF7B3FF40F2712445F2555009F093
:1027D00039F8304609F039F8204609F039F809F09F
:1027E0003AF8BDE8FE4009F03BB8FEE709F033B81F
:1027F0000907090E002804DB00F1E02080F800142E
:10280000704700F00F0000F1E02080F8141D7047C1
:10281000F40F0020C41300202DE9F0410E460746B6
:10282000012A0FD0C14C0021204608F042FABF48CF
:102830004438866407650121204608F03AFA30469C
:10284000BDE8F0810025BA4C0BE021882046795D77
:102850000AF01DF9402120460AF07AF90028F9D043
:102860006D1CB542F1DBEAE70FB44FF4807110B58F
:1028700003ABB048029A0BF041FC81B20122AD4893
:10288000FFF7CAFF10BC5DF814FB2DE9F0430121EE
:102890008BB0084609F0F6F8DFF89082404608F061
:1028A00071F9A34D00242D1D102080260095CDE93F
:1028B000044647020290CDE908470694079469460A
:1028C00040460A9408F0CBF901220221404608F064
:1028D000FBF9DFF85C820122802140460AF0A3F870
:1028E000DFF8489209F11409484608F04BF992487C
:1028F0000095CDE9010403A9012081E851002020C1
:102900000694CDE90740CDE909746946484608F0C8
:10291000A6F901220221484608F0D6F901214846CD
:1029200008F0C7F90122402140460AF07CF80BB0BC
:10293000BDE8F08308B50E208DF800000A208DF860
:10294000010000208DF8020001208DF80300684688
:1029500008F0C5F808BD08B50F208DF800000A2062
:102960008DF8010000208DF8020001208DF8030091
:10297000684608F0B4F808BD10B5704C0146204612
:102980000AF085F8802120460AF0E2F80028F9D004
:1029900010BD2DE9F0410E4607460024674D0BE0BF
:1029A000395D28460AF073F8802128460AF0D0F8ED
:1029B0000028F9D0641CE4B2B442F1D340E770B50A
:1029C0005E4C40F22555294620460AF0CBF80028F7
:1029D0000BD020460AF05FF8C0B2FFF7CDFF2946C2
:1029E0002046BDE870400AF0DCB870BD1FB501217B
:1029F00044F2040009F04FF84FF40070ADF8000005
:102A000003208DF8020018204D4C8DF80300694614
:102A1000204608F0A4FC2015ADF8000004208DF835
:102A200003006946204608F09AFC4FF4E13000901C
:102A30000020ADF80400ADF80600ADF80800ADF8D0
:102A40000C000C203A4CADF80A006946204609F00B
:102A500055FF012240F22551204609F0CCFF01210B
:102A6000204609F0BEFFFFF710FFFFF763FFFFF7F7
:102A700072FFBDE81F40AFF3008070B586B0012142
:102A8000042009F008F80121480409F00DF8042495
:102A9000ADF8104018208DF81300294E03258DF84D
:102AA000125004A9304608F05AFC0820ADF8100076
:102AB0008DF813408DF8125004A9304608F04FFCF1
:102AC00000244FF4E1300090ADF808400C201B4D7D
:102AD000ADF80440ADF80A00ADF80640ADF80C4082
:102AE0006946284609F00AFF0121284609F079FFC6
:102AF000012240F22551284609F07DFF4021284659
:102B00000AF02DF84FF4C06007F0E4FF26208DF89E
:102B100014008DF815408DF8164001208DF817002F
:102B200005A807F0DCFF06B070BD000044000240BD
:102B300000380140E5160020F80F00200044004056
:102B4000000801407047F8B50546042016460F46B8
:102B500000248DF8000008F086F9352008F091FB7C
:102B6000284608F0BBF98DF800009DF80000042805
:102B70000AD015E057F82410284608F04EFA8DF8D0
:102B80000000641CE4B22D1DB44203D29DF8000085
:102B90000428EFD008F073F99DF80000042801D054
:102BA0000020F8BD0120F8BD10B5002304E010C8D6
:102BB00041F823405B1CDBB29342F8D310BD000008
:102BC00008B517208DF8000001208DF801000020C5
:102BD0008DF802008DF80300684607F080FF08BDFD
:102BE0001CB50521012008F072FC20200090002077
:102BF0008DF8040008208DF8050001208DF80600EE
:102C0000684608F0B1F8FFF7DBFF1CBD70B5354D25
:102C100086B0284608F08EFF0121080308F03BFF2C
:102C200001210D2008F037FF0021ADF804104FF40A
:102C30008270ADF80600ADF80C106815ADF80E0006
:102C4000ADF80810ADF810100720ADF80A10ADF877
:102C50001210ADF8140001A9284608F08FFFA0203B
:102C6000ADF8000018208DF803001F4E03248DF8E6
:102C700002406946304608F072FB4020ADF8000083
:102C800048208DF803006946304608F068FB1021A3
:102C9000ADF800108DF803108DF8024069463046FB
:102CA00008F05DFB0021284609F01DF801212846A7
:102CB00008F0E1FF1021304608F0BFFB0121082099
:102CC00008F0E9FE2020ADF8000028208DF8030070
:102CD0006946064808F043FBFFF782FF06B0002074
:102CE00070BD93E70030014000080140000C014036
:102CF00010B5012186B0480508F0D6FE0121082054
:102D000008F0C9FEC020ADF8100003208DF81200B5
:102D10001C208DF8130004A98D4808F020FB8D4C71
:102D2000204608F0FBFB0020ADF804004BF6FF70D6
:102D3000ADF806003020ADF808002015ADF80A0007
:102D40000001ADF80C00844800900121204608F0F5
:102D50005FFC6946204608F0F4FB04F024FBFF20EA
:102D600004F08CFB002004F089FB002006B010BDAD
:102D700010B5012186B0880508F096FE01210820D3
:102D800008F089FE4FF44060ADF8100003208DF884
:102D900012001C208DF8130004A96D4808F0DFFA1A
:102DA0006E4C204608F0BAFB0020ADF804004BF64C
:102DB000FF70ADF806003020ADF808002015ADF822
:102DC0000A000001ADF80C00634800900121204684
:102DD00008F01EFC6946204608F0B3FB0020C5E75A
:102DE00010B588B0002004F049FB5D480068807C85
:102DF00040B108B002230121BDE8104059A23020A3
:102E000004F070BB594C5AA16846E28C0BF062F991
:102E1000B4F841004FF00203012817D055A2022157
:102E20005FF0230004F05EFB94F82800012811D025
:102E3000022352A20621282004F054FB02236A46F2
:102E40000621402004F04EFB08B010BD02214CA228
:102E50002720E7E7012349A20621162004F042FBC0
:102E600001236A460621232004F03CFB01230621AE
:102E700045A23B20E6E700B589B0002004F0FEFA49
:102E80003A4844A1C28C68460BF024F9002211464E
:102E9000102004F08FFB01220021202004F08AFB87
:102EA00002220021302004F085FB03220021402073
:102EB00004F080FB022338A20021512004F012FB11
:102EC00008220221202004F075FB09220221302073
:102ED00004F070FB022329A21946402004F002FBF3
:102EE00002236A461946582004F0FCFA09B000BDD6
:102EF00010B588B0044610F1FF4FA5D220216846D6
:102F000009F04BFF26482749844202DD26488442C7
:102F100008DC20460AF044F80AF02FFB0B46024674
:102F200022A10AE023488442F3DC20460AF038F864
:102F30000AF023FB0B4602461FA168460BF0CAF8B5
:102F400001236A4606214B2004F0CCFA7CE70000FE
:102F5000000C014000540040801A06000058004058
:102F60001410002050446F4100000000880B002026
:102F700041256400785041205457520049443A009A
:102F8000504120545752000054303A2D2D2D2D2001
:102F90006D0000002564000020545752000000001E
:102FA000000010410000C84200C0794425302E3393
:102FB00066000000003C1C4625302E3266000000F2
:102FC00010B504F071FB04F09EFB04F0B3FBBDE808
:102FD000104005F0DFBC04F0DBBB04F0EBBB0000ED
:102FE0000022C0F84C21C0E95421704770B5D0F8D8
:102FF0004C110446D0F850210D4685A0FFF734FC53
:103000001BE0294688A0FFF72FFC05EB451688A09A
:1030100014F81610FFF728FC04EB460687A0717819
:10302000FFF722FC87A0FFF71FFCB11C87A0FFF76A
:103030001BFC87A0FFF718FC6D1CD4F8540195FB0E
:10304000F0F100FB1150D4F850118842D9D1BDE8FD
:1030500070407FA0FFF708BC00F5A871D0F84C01C4
:1030600006C9491C91FBF2F302FB1311814201D105
:103070000120704700207047D0E95310814201D1F0
:1030800001207047002070470FB410B50446FFF7C9
:10309000E3FF18B1002010BC5DF814FBD4F8501108
:1030A0009DF80C0001EB411104F81100D4F8501107
:1030B0009DF80D0001EB411104EB41014870D4F87B
:1030C00050019DF80D2000EB401004EB40000DF185
:1030D0000E01801C09F048FE04F5A87003C8401CCE
:1030E00090FBF1F201FB1200C4F850010120D2E77D
:1030F00070B50D460446FFF7BFFF08B1002070BD54
:10310000D4F84C01422200EB401004EB4001284669
:1031100009F02AFED4F84C01422100EB401004EBE8
:10312000400009F03AFED4F84C01D4F85411401C88
:1031300090FBF1F201FB1200C4F84C0168784028C2
:1031400003D944A0FFF790FBD8E7012070BD30B54C
:10315000002288B05FF00A03B0FBF3F403FB140411
:10316000B0FBF3F030348C54521C0028F4D1885456
:1031700010006B4604D40C5C151A401E5C55FAD541
:10318000012004E01C5C0D18401C05F8014C904225
:10319000F8DD08B030BD2DE9F041174688460646F7
:1031A00000241DE0305D09F0D9FDC5B2301940782A
:1031B00009F0D4FDC0B2392D01D9373D00E0303DD2
:1031C000E9B2392801D9373800E03038C0B204EB11
:1031D000D47240EA011008EB6201A41C087024B20A
:1031E000BC42DFDBBDE8F081F8B515460E46074668
:1031F00000240AE03A5D1CA168460AF06BFF06EB6A
:103200004400BDF800100180641CAC42F2DBF8BD44
:10321000512D3E66726F6E74203A25642C72656182
:10322000723A2025640A000069203A2564000000F3
:10323000666C61673A256420000000006C656E3A98
:10324000256420006D7367203A000000257320007C
:103250000A0000006572726F7220717565756520D5
:103260006D73670A0000000025303258000000002E
:1032700010B586B008F004FB4FF48034204608F007
:1032800018FB08F043FB28B3102007F0E3FD0220F1
:1032900007F0D0FD002008F071FB002008F07CFB57
:1032A000A01108F072FB601008F08BFB4FF4E011E6
:1032B000204608F04CFB012008F051FB392008F0B3
:1032C00010FB0028FAD0022008F04CFB08F051FB5C
:1032D0000828FBD1684608F095FB06B010BD10B574
:1032E00009F0D2FCFFF7C4FFFFF7D8F9BDE81040A2
:1032F000FDF786BE00F015FF204C94F8290010B1B0
:10330000FDF78AFEFCE702231DA21946132004F0F4
:10331000E9F802231DA20421132004F0E3F81E4D56
:103320004FF6FF7602E000BFFDF776FE2868C08901
:10333000B042F9D02868807C28B194F82800012890
:1033400012D0A0B115E02068A0F52A41AA3910D109
:1033500094F82800012801D018B10AE000F08BFD94
:1033600007E001F0AFFB04E006F05BFF01E006F0D0
:103370001CFBFEE7FFF7B3FFFFF7BCFF880B002045
:10338000506C656173652053656E64004154204341
:103390006F6D6D616E64000014100020704730A0E6
:1033A000FFF762FA33488168491C8160FDF7D4FD5C
:1033B00000F049F830A0FFF757FA2E48C168491CC1
:1033C000C160FDF7C9FD00F03EF830A0FFF74CFAF0
:1033D00028480169491C0161FDF7BEFD00F033F882
:1033E0002FA0FFF741FA23484169491C4161FDF7CD
:1033F000B3FD00F028F87047704770472D4801680A
:10340000491C0160FFF78AB910B500F05EFEBDE807
:103410001040202007F006BD10B501218C07204682
:1034200009F02DFA00280DD00121204609F033FAC9
:1034300021490888421C0A80FFF70BF9BDE81040BB
:10344000FFF7D4B910BDBFF34F8F1C4801681C4A69
:1034500001F4E06111430160BFF34F8F00BFFDE74E
:10346000486172644661756C745F48616E646C6536
:10347000720A0000880B00204D656D4D616E61671A
:10348000655F48616E646C65720A00004275734640
:1034900061756C745F48616E646C65720A0000004F
:1034A00055736167654661756C745F48616E646CE5
:1034B00065720A0010100020FA0F00200CED00E0E9
:1034C0000400FA052DE9F0418046FE48FE4C50F814
:1034D000311F4568606809F0D9FC0746294609F0A4
:1034E000D5FC0146384609F05BFD216806460D46CD
:1034F000404609F01DFD314609F020FD294609F03E
:10350000C5FC054631464FF07E5009F011FD3946A5
:1035100009F014FDC4E900502846BDE8F08110B55B
:10352000EAA29AB0136800939288ADF804205B2257
:103530008DF806204268CDF807200288ADF80B20F0
:10354000B1F8C011ADF80D1081788DF80F10017A27
:103550008DF8101000216C4600EB410204EB810352
:103560005289491C02EB82025200C3F81120C3F8B1
:1035700032200829F0DB00208DF852008DF854002D
:103580008DF831008DF853008DF85500CDF85600B8
:10359000CDF85A00CDF85E005B2206216846FDF7A3
:1035A000ABFE8DF86200CBA065210088ADF863000A
:1035B0006846FDF79DFE1AB010BDF0B58BB004460D
:1035C0002821684609F0E9FB00221046134694467C
:1035D0004FEA0D0104EB43058F18AE7A521C06EB3F
:1035E00086067600FE70D2B26E898F1806EB8606CC
:1035F000C6F3D716FE70521CD2B26D898E1805EB39
:103600008505C5F3CF35521CF570D2B28D18521C0A
:103610005B1C85F803C0D2B2082B01DA202AD9D36B
:10362000AA228DF8002025228DF8012001228DF894
:10363000022055228DF8242000228B5C521C184455
:10364000C0B2232AF9DB8DF8230025216846FDF757
:1036500051FE0BB0F0BDA04870472DE9F05F074662
:103660000C4601F59475B1F8D281B1F8CA01B1F8F0
:10367000C01197F88520491C4843B4F8F81197F811
:1036800086600844B4F8101297F884300844B4F8FF
:1036900012124FF0000B0844110A12060E4342EAC0
:1036A000034246EA134697F8833017F8821F42EA2E
:1036B000032246EA136642EA010904F5E07409F0C0
:1036C0008DFE00F041FE10EB09004FEA502944F254
:1036D00088107141688095F88400AE1C2871401CE8
:1036E00085F884002088A5F80900A5F8078060887F
:1036F000A5F805001B20E87201F0FF0AD7F80620A4
:1037000021884FEA4929A4F5E07459B35FF000001D
:10371000C6F80A0094F8D001B0730B36FDF7B0FC80
:10372000B08008EBC80004EB80006C49D0F86C0254
:1037300009F004FC09F098FEF080152025F8680BCC
:103740000122AA7685F81BB0297F491C29774FEA08
:1037500019216A7741EA0A61C5E9091BA5F82CB06D
:10376000BDE8F09FB4F8C81108F0FF00B2FBF1F318
:1037700001FB1322B4F8C4315843801A4A0852425C
:103780008242C5DD0844C3E770472DE9F04F054686
:10379000B0F9000005278FB00C460D2806D015287B
:1037A00004D06E2802D010214DA006E06888A0F554
:1037B0008241883904D010214EA0FDF78EFD6BE1C7
:1037C000E87A1A2804D01B28F9D01C28F7D13EE04B
:1037D000287B84F8D001B5F80900A4F8D201D5F807
:1037E0008200C4F8D80195F8860084F8DC012146EF
:1037F0002846FFF732FF04F59475002703F0ECF834
:1038000028880022A91C02F095F900222888114678
:1038100002F0B7F9D5F88C0008B103F06BF895F811
:103820008500800707D5D5F8900002F0F1FEB5F8C5
:10383000940003F03BF995F8850003F060F818B1A7
:103840000127102130A0B8E70620206024E1B5F858
:103850000990B4F8D21149457ED195F85D10B4F8BD
:10386000C001C140C90777D0297B94F8D02191428B
:10387000F2D1D5F88210C4F8E81195F8861084F8D2
:10388000EC11D5F80DC0D5F8118005EBC000CDF8CE
:10389000348050F815EF09EBC9014068059004EB3E
:1038A0008106D5F85920D5F85510CDE90A12D4E98A
:1038B0007810D4E976380893D4E97A320B27824617
:1038C000C3462BE0880B0020FC0F0020436D644DA5
:1038D0003A3400000D0A0000E81700200000C8423A
:1038E00072656376206572726F72206D7367310A3C
:1038F0000000000072656376206572726F72206D41
:103900007367320A0000000073656E64207265738D
:1039100070206661756C740A000000000693DDF883
:1039200034800598BEEB0C0360EB0800C0B2CDE913
:103930000C30089B06F51476CB1A6AEB0B009B46FD
:10394000069BC0B2591A62EB0A020990D0B28A46AD
:10395000DDE90A21079000E09DE00598B2EB0E0832
:1039600061EB0001C8B205905846099909F00FFDB6
:1039700002904046059909F00AFD029909F0DEFA25
:1039800002905046079909F002FD0490DDE90C0110
:1039900009F0FDFC049909F0D1FA029909F0C8FA7E
:1039A00002905846099909F0F2FC8346504607995F
:1039B00009F0EDFC594609F069FA8246404605993E
:1039C00009F0E5FC8046DDE90C0109F0E0FC414628
:1039D00009F05CFA0146504609F058FA014602988F
:1039E00009F0DEFA09F027FD09F0C3FC09F0C5FD76
:1039F000F84AF94B09F0C5FB09F002FEDFF8DC8359
:103A00000490D8F83D0009F0B8FD82468B46D8F8FE
:103A1000390009F0B2FD80460391049809F0ADFD2C
:103A20000022EF4B09F0ADFB4246039B09F0A9FBD6
:103A300052465B4609F0FEFA09F0E2FDE94909F059
:103A4000AFFAF061FFF73EFD3062A6F80090287BE8
:103A5000B07000F01BFA706095F85D0030811022A4
:103A600005F15E0106F10A0009F07EF921463046B3
:103A7000FFF755FD21463046FFF79FFDB9F1000FD6
:103A80000AD1D949F06909F059FAFFF731FAD74953
:103A9000F069086000E006270FB03846BDE8F08FF7
:103AA00070B5D34D05F5947495F8AA0101280BD192
:103AB00004F1860002F08DFBD4F88600C5F8E00121
:103AC00094F88A0085F8E401012084F8830070BD31
:103AD000F8B5C74D074695F82401D5F82061801B3D
:103AE000C043C00720D0684602F00CF9C6EBC60000
:103AF00000EB800005EB8004083400F0C7F9C4F83F
:103B0000880004F1820002F09BFBF8887F2800D334
:103B10007F20208081B20022A01C02F05EF80120EC
:103B2000B043C5F82001F8BDB2A0FEF79DFEF8BD78
:103B300010B5002002F0BAFFBDE81040002002F0EE
:103B400071BF10B5002002F0B1FFBDE810400020A9
:103B500002F068BF2DE9F041044600F0DFFA0546A7
:103B600007262168002039B1062951D001270729ED
:103B70005BD008297ED162E0B5F81310A4F8C21119
:103B8000E989A4F8C0116968C4F8C411A968C4F827
:103B9000C811A989A4F8CC110A21A4F8C411B5F858
:103BA0001710A4F8C61101EB81014900A4F8C8114F
:103BB00084F8D001FF20A4F8D201288801F0AFFFDB
:103BC000688801F0B2FF0621002002F09CFBB5F8E6
:103BD000130002F0B1FBE88902F0B3FB002002F011
:103BE00017FD002002F062FFB5F82900012801D07E
:103BF000012000E0002001F0B8FBB5F82900012801
:103C000004D0002001F0BAFB266033E00320F9E77E
:103C100094F8AB11012906D184F8AB0194F8AA11EC
:103C2000012900D12660606024E00020676002F076
:103C3000F9FE002002F03AFF082020601AE094F814
:103C40002001D4F82451401B00F00100002810DDB1
:103C5000C5EBC50000EB800004EB80002146083076
:103C6000FFF793FD00B126606D1C05F00100C4F85C
:103C700024016760606850E410B55D4C002060600E
:103C80002046FFF767FF0028FAD010BDFFF7F4FFCA
:103C9000FDF7C2F9FAE7F0B587B0554D00F03EFAEE
:103CA00006464FF4DA61284609F077F8002406F159
:103CB00061072C60B879009078780190787903904A
:103CC000F8780490F87A10F00B0003D0397B0820C4
:103CD000891C884002900D20059005F5F871684612
:103CE00000F04AFA1520059005F50471684600F0C9
:103CF00043FA6E20059005F50C71684600F03CFA19
:103D000000F0EFF900F024F900F0D6F8022000F0FE
:103D1000C8F84FF4FA7500BF02F09DFC0028FBD0F4
:103D200005E038A0FEF7A0FD284600F0BAF8002014
:103D300001F073F9401CF4D086F86E4086F86C40B0
:103D400005E035A0FEF790FD284600F0AAF83846B9
:103D500001F034FD0028F4D1344801F09BFB03202E
:103D600002F08CFD0094AFF22523AFF23B22AFF2BC
:103D70009F21AFF2D320019402F05CFC01220021CC
:103D80002B4802F0ADFE07B0F0BD00B595B0402164
:103D900004A809F002F8114890F87F00012861D0CA
:103DA000244800BF09F0E9FBCDE90201224823A223
:103DB000006890F861100091C389402104A80AF0BE
:103DC00071F9402803D281B204A8FDF786FA15B034
:103DD00000BD47E01329AA153236733F880B002037
:103DE00000408F4000007A440000C84200000020DC
:103DF000E8170020CAFDD7E9D2E7B3F620B4EDCE2C
:103E0000F30A0000494E4954204641494C4544209C
:103E10002020202000000000434F4E464947204606
:103E200041494C454420202020200000181000204B
:103E300080D02304008054441410002049443A25C3
:103E40006420BDC7C9AB3ABBF9D5BE20D0C5B5C04B
:103E50003A256420CBD9C2CAA3BA252E31664D0DAE
:103E60000A00000008489DE710B5FFF714FFBDE801
:103E7000104000F041B9FEF7B3FFFFF7F5FFFFF781
:103E800084FFFFF703FF00009A99D9409E4800681D
:103E900070479D490A6810440A68121A002AFBDD1F
:103EA0007047F6E700EB40008100002001E000BF12
:103EB000401C8842FBD37047F8B50124ADF80040A0
:103EC00010208DF80300914E03258DF802506946AD
:103ED000304607F044FA0121304607F0B0FAADF859
:103EE000004000208DF803008DF8025069463046EE
:103EF00007F035FA0220FFF7CCFFF8BD30B5844D4E
:103F0000044685B0284607F015FE0021ADF80010E4
:103F10004FF48270ADF80200ADF808106815ADF8E6
:103F20000A00ADF80410ADF80C400720ADF80610FB
:103F3000ADF80E10ADF810006946284607F01EFED9
:103F40000121284607F097FE05B030BD2020D5E7B7
:103F50000020D3E710B56D4C1021204607F06FFA12
:103F60000120FFF796FF1021204607F066FABDE812
:103F7000104007208DE78CE766490246002009685B
:103F8000114200D0012070477FB5012500245F4A0F
:103F90000826ADF8085030B304208DF80B0002A9B4
:103FA000104607F0DCF90021084607F090FA8DF87A
:103FB00004408DF8056000958DF80650684606F0BF
:103FC000D3FE4FF4407006F085FD06208DF80C00FE
:103FD0000F208DF80D008DF80E408DF80F5003A8BE
:103FE00006F07DFD7FBD8DF80B4003208DF80A00A3
:103FF00002A9104607F0B3F98DF804408DF805606A
:1040000000958DF80640684606F0AEFE7FBD2DE9AE
:10401000F041984615460F460646002400F044FE3F
:1040200002463A48102314300360394806E0395DEF
:1040300081810189C907FCD08189641CB442F6DB07
:10404000002107E018F8014084810489E407FCD0CE
:104050008489491CA942F5D32C48103003601046CE
:1040600000F033FE0020BDE8F0812DE9F0411D464F
:10407000164688460746002400F016FE02462348EE
:10408000102314300360224809E000BF18F8041020
:1040900081810189C907FCD081892970641CBC42D7
:1040A000F4DB00210C4606E084810789FF07FCD081
:1040B00087896F54491CB142F6D31448103003600D
:1040C000104600F002FE0020CDE710B5124C01E0D2
:1040D00002F0CAFA2021204607F09BF90028F7D108
:1040E00010BD4FF0E0214FF40000C1F88001BFF394
:1040F0004F8FBFF36F8F70474FF0E0214FF40000F8
:10410000C1F80001704700001010002000080140B5
:104110000030014000040140000C01400E480068DE
:10412000704738B50C490D48A0F118040860B4F880
:104130005B000090B4F8593034F9472F0848B4F9BF
:104140000210FEF791FBB4F84220B4F84010BDE82D
:10415000384004A0FEF788BB14100020A00B0020FC
:10416000A00D0108736C6F743A25642C616464724D
:104170003A253034580A00002DE9F04706460C462F
:104180004FF00008406909F018F9032209F0DAF845
:104190000F4605460022604B09F065F809F030FA39
:1041A0000AF04AFF09F0E9F900225C4B08F0E9FF48
:1041B0000B4602462846394608F03CFF09F020FA33
:1041C000574F316811B101294BD101E0554900E049
:1041D000554908F0B3FE8146F06802280DD008204A
:1041E000824670680E283CD2DFE800F03B1D1109C2
:1041F0003B1A0F3B3B170C3B3B141020F0E74FF0F2
:104200008B4512E04FF08A450FE0484D0DE04FF02E
:1042100089450AE04FF0884507E04FF0874504E004
:104220004FF0864501E04FF08545B06800280DDD70
:1042300009F09FF809F0A1F93D4A3E4B08F0A1FFB3
:10424000012209F07FF809F0DBF98046306909287E
:1042500009DA504609F08DF8294608F017FE36496C
:104260000AE0AFF30080192809DA504609F081F816
:10427000294608F00BFE314908F060FE0546284645
:1042800009F0F2F82080404609F0EEF860802C4EEC
:104290002C4809F0E9F8A0803146484608F080FE35
:1042A00009F0E2F8E0803946484608F0EFFD314673
:1042B00008F076FE09F0D8F880B2208109F062F8A3
:1042C00006464146284608F0E1FD314608F0DEFD8D
:1042D00009F0CAF880B2608109F080F800F054F863
:1042E00009F0F5F8A081608909F078F800F02CF861
:1042F000C4E90401227C2276020A42EA0162627663
:10430000020C42EA0142000EA27640EA0120E07669
:10431000207D2077BDE8F08700A074400000484071
:10432000E144A8467B348044C33500430000C044C8
:104330000D71AC8BDB68E03FEA5B7E3FB341823FAF
:1043400000007A44B94EAC4110B52C4A2C4B08F011
:104350008AFF00222B4B08F086FFBDE8104009F0D1
:10436000F4B810B509F05BF8BDE81040234A244BBF
:1043700008F007BF10B5214A214B08F074FF09F07F
:10438000E4F801F00F0110BD1F4A204B08F06BBF8D
:10439000417919B1012901D0022901D0092100E098
:1043A000112142780E2A16D2DFE802F015070C150B
:1043B00015070C1515070C151507130940229A400F
:1043C000114406E013094FF400729A40114401F5BC
:1043D000007109B201E001F580518078012807D011
:1043E000022807D0032801D0083904E0091F02E0A1
:1043F000103900E0203908B270470000FA48CE3B7F
:104400001835B13D80842E410D71AC8BDB68F03FD7
:10441000FE4870472DE9F041044690F8D101401E56
:1044200040B284F8D101002805DA002901D0032028
:104430002060BDE8F081D4E97856B4F8CA11C0F123
:104440000800484308F0B9FFFFF77EFF401941EB31
:104450000607450AB4F86A026D02963008F0BEFFFE
:10446000FFF792FF09F033F886B2280A40EA0760A6
:1044700002F040FA304602F019FB012002F0D2FAB5
:104480000820D5E770B50446002502F0A5FA20887B
:104490000022A11C01F04EFB00222088114601F0F1
:1044A00070FBD4F88C0008B102F024FA94F885006F
:1044B000800707D5D4F8900002F0AAF8B4F8940069
:1044C00002F0F4FAD4F88C0000B1012094F88510C1
:1044D000084302F014FA00B10125284670BD70B5FA
:1044E000CA4C04F5947504F5D77001F072FE95F886
:1044F000820088B9082084F8D101002084F8D20114
:10450000D5F88600C4F8E00195F88A0084F8E40143
:1045100000212046FFF77EFF012085F8830070BD53
:10452000F8B5BA4D074695F82401D5F82061801BEF
:10453000C043C00727D0684601F0E4FBC6EBC600C5
:1045400000EB800005EB80040834FFF79FFCC4F803
:10455000880004F1820001F073FEF8887F2800D300
:104560007F20208081B20022A01C01F036FB0120B8
:10457000B043C5F8200195F8AA01002803D1002115
:104580002846FFF747FFF8BDA04890F8AA11002978
:1045900001D101213EE77047F6E730B504469CA003
:1045A0009BB0016800918088ADF804005B208DF815
:1045B0000600FFF76BFCCDF80700B4F8C00100213E
:1045C000ADF80B00ADF80D1094F8D0018DF80F0088
:1045D00094F8D2018DF810000A466D4604EB4200B3
:1045E000B0F8860100EB8000430005EB8200521C0E
:1045F000C0F81130C0F83230082AEFDB8DF85210C5
:104600008DF854108DF831108DF853108DF8551029
:10461000CDF85610CDF85A10CDF85E105B22062169
:104620006846FCF769FE8DF862007BA06521008872
:10463000ADF863006846FCF75BFE65216846FCF751
:1046400057FE1BB030BDF0B58BB00446282168463C
:1046500008F0A3FB00221046134694464FEA0D01D2
:1046600004EB43058F1895F88661521C06EB86060D
:104670007600FE70D2B2B5F886618F1806EB86061A
:10468000C6F3D716FE70521CD2B2B5F886518E18FA
:1046900005EB8505C5F3CF35521CF570D2B28D18E8
:1046A000521C5B1C85F803C0D2B2082B01DA202A09
:1046B000D6D3AA228DF8002025228DF801200122D0
:1046C0008DF8022055228DF8242000228B5C521C8C
:1046D0001844C0B2232AF9DB8DF82300252168464F
:1046E000FCF708FE0BB0F0BD2DE9F0470446FFF7DC
:1046F00015FD21680646002501274FF006094FF0F9
:10470000050804F594700A294DD2DFE801F0055C34
:10471000FA92FADBB9FAE24FB6F81300A4F8C20134
:10472000F089A4F8C0017068C4F8C401B068C4F886
:10473000C801B089A4F8CC010A20A4F8C401B6F8D5
:104740001700A4F8C60100EB80004000A4F8C801DF
:1047500084F8D05184F8D15184F8D251C4F8D4519E
:10476000308801F0DCF9708801F0DFF906210020C3
:1047700001F0C9FDB6F8130001F0DEFDF08901F08B
:10478000E0FDB6F82900012801D0012000E000205A
:1047900000F0EBFDB6F82900012805D05FF000001D
:1047A00000F0ECFD2760ACE00320F9E794F831025B
:1047B0000A2801D06760A4E084F8315284F83052AE
:1047C000C4E900759DE0811C44F2881221F8012B98
:1047D00090F884204A70B4F8C021CA804FF6FF7266
:1047E0008A80B4F8C2214A801A220A7294F8D02131
:1047F000521C84F8D0214A720D2120F8681B85765E
:10480000C576017F491C0177457707E0B81E002077
:10481000436D644D3A3400000D0A00004562856224
:1048200085856838FFF72EFE38B3FCA0C4F80080F9
:104830000DE094F8D21169B10546214600F04AF91D
:104840002846FFF71FFEC0B1F8A0C4F80080FEF7AD
:104850000BF856E04FF0E0264FF40005C4F8008056
:10486000C6F8805106F5C076BFF34F8FBFF36F8F48
:1048700002F0B2F846F8805C43E0C4F8009040E0F3
:1048800094F8AB0101281BD184F8AB5194F8AA012C
:10489000082610B1022813D101E0266010E020465E
:1048A000C4F80080FFF779FE2046FFF7CCFE84F8BD
:1048B000D16184F8D251102104F5C37008F06DFA6B
:1048C00065601EE0092020600220606084F830727C
:1048D00017E094F82001D4F82451401B00F00100A7
:1048E00000280EDDC5EBC50000EB800004EB800066
:1048F0002146083000F044F96D1C05F00100C4F8B1
:1049000024016068BDE8F08770B5CC4C0025656077
:104910002046FFF7E9FE0028FAD0022814D094F8C8
:10492000320201280FD100BFFFF7B0FAD4F83812D5
:10493000884208D384F832520A2084F83102FFF703
:10494000A5FAC4F83C0270BDFFF7E8FBB4F8C81143
:10495000D4F8D4010844C4F83402D4F83C12084412
:10496000C4F83802012084F83202C4F8D451DBE7DD
:10497000FFF7CAFFFCF750FBFAE7F0B587B0AF4C82
:10498000FFF7CCFB06464FF42871204608F005FAE5
:10499000002506F161072560B879009078780190CC
:1049A00078790390F8780490F87A10F00B0003D02F
:1049B000397B0820891C884002900D20059004F561
:1049C00010716846FFF7D8FB1520059004F51871A3
:1049D0006846FFF7D1FB6E20059004F5207168460C
:1049E000FFF7CAFBFFF77DFBFFF7B2FAFFF764FAA8
:1049F0000220FFF756FA4FF4FA7400BF01F02BFEC5
:104A00000028FBD005E08EA0FDF72EFF2046FFF723
:104A100048FA002000F001FB401CF4D086F86C50EE
:104A200005E08CA0FDF720FF2046FFF73AFA384654
:104A300000F0C4FE0028F4D18B4800F02BFD0320C9
:104A400001F01CFF0095AFF2AF43AFF2C342AFF2EB
:104A50002F51AFF27550019501F0ECFD01220021BC
:104A6000824802F03DF807B0F0BD00B595B0402196
:104A700004A808F092F97E4890F87F00012818D029
:104A80007C4800BF08F079FDCDE902017A487BA29D
:104A9000006890F861100091C389402104A809F0D2
:104AA00001FB402803D281B204A8FCF716FC15B024
:104AB00000BD7C48E6E710B5FFF75FFFBDE810409A
:104AC000FFF71ABBFEF78CF9FFF7F5FFFFF7CDFFF5
:104AD000FFF74EFF2DE9F0410D460446D5E9787801
:104AE000B1F8CC0101F5E07508F078FCFFF72CFC7B
:104AF000C01941EB08064FEA5028A71C44F2881061
:104B000027F8020B94F8840007F8010B2888B88076
:104B10004FF6FF707880688838801C20B871287C38
:104B2000F871D5E90801B860F9604FEA4828A8890A
:104B3000683408F053FCFFF707FC4F4A12685388AB
:104B40000022C018D5E9083C5141C01841EB0C01C6
:104B500038657965A87C87F858006E2024F8680CC1
:104B60000220A076E276207F401C2077012060772B
:104B70004FEA182040EA0660C4E90902A28558E419
:104B8000F0B5C27A1B2A3ED10288152A3BD1B0F873
:104B90000730B1F8C041821CA34234D1937B91F815
:104BA000D041A3422FD1B2F8075001F5947405F01B
:104BB00007033DB9D2F80A50C1F8D451B2F80F50EA
:104BC000A1F8D85191F8D25101269E40354381F881
:104BD000D25101EBC30600F1800550F8827FC6F880
:104BE000E871007986F8EC01A41C04EBC300D5F849
:104BF0000260C0F81360AD79C575B2F8110004EB1E
:104C00004302A2F85C0091F9D101401C05D191F852
:104C1000AA01002801D103200860F0BDB7A2CBCDC6
:104C2000706F6C6CCAA7B0DC0A000000B7A2CBCDD5
:104C300066696E616CCAA7B0DC0A0000B81E00206D
:104C4000494E4954204641494C45442020202020CB
:104C500000000000434F4E464947204641494C451D
:104C600044202020202000001810002080D02304A1
:104C7000880B0020008054441410002049443A2539
:104C80006420BDC7C9AB3AB1EAC7A920D0C5B5C039
:104C90003A256420CBD9C2CAA3BA252E31664D0D60
:104CA0000A0000009A99D94010B51720FFF764F95F
:104CB000002809D04FF0E0224FF40001C2F8801123
:104CC000BFF34F8FBFF36F8F10BD002805D04FF09B
:104CD000E0214FF40000C1F8000170474FF480203C
:104CE000704710B14FF0FF307047FF49FD48086032
:104CF0000020704738B50024009400F018F838BD43
:104D000008B589B26B460122FFF7F4FF9DF8000059
:104D100008BD30B5F34D00230446403503E0E05CA8
:104D200050405B1C2A5C8B42F9DB104630BD2DE9FC
:104D3000F843064617463144C1F3044208989846A2
:104D400001F07F011F2A27D87F2925D8B7F5445FB6
:104D500022D24FF4004C48F2010360450AD048B11A
:104D6000984207D0A0F50044023C03D0A0F50044CF
:104D7000033C11D1520242EA810240EA0204240AB1
:104D800000F003058DF8004015438DF801500FB178
:104D900051B10CE0604501D0AFF30080812141EAC0
:104DA00046018DF8001012E060450ED068B144F065
:104DB00040018DF800100224C11ACB4D98420DD04D
:104DC00007DC20B3604508D108E08DF800400124DD
:104DD000F2E7012902D0022900D0FEE72868007D11
:104DE00070B1002221466846FFF793FF024639461C
:104DF0004046FFF78EFFBDA0FDF736FDBDE8F88306
:104E000043463A4669462046FFF701F9F6E743462E
:104E10003A4669462046FFF728F92868007D0228AF
:104E2000ECD1182EEAD0002221466846FFF771FF28
:104E3000024639464046FFF76CFF04460021182021
:104E4000FFF75EFF8442D9D02868406A0028D5D099
:104E50008047D3E738B54FF400440094FFF767FF6D
:104E600038BDFFF777B838B5002489B26B46042205
:104E7000FFF740FF03216846425C491E02EB042411
:104E8000FAD5204638BD08B589B26B460222FFF735
:104E900031FF9DF800009DF8011000EB012080B269
:104EA00008BD38B500236C46E254120A5B1C042B83
:104EB000FADB89B223460422FFF7CCFF38BD08B5E0
:104EC00089B28DF80020120A8DF801206B4602226B
:104ED000FFF7C0FF08BD07B589B202AB0122FFF79B
:104EE000B9FF0EBD3EB5140A8DF804208DF80540BB
:104EF000140C8DF80640120E8DF807208DF808303E
:104F00001A0A8DF809201A0C8DF80A201A0E8DF84D
:104F10000B2048F20302009289B201AB0822FFF78E
:104F200006FF3EBD1CB589B28DF80420120A8DF82B
:104F300005208DF806301A0A8DF8072048F2020283
:104F4000009201AB0422FFF7F2FE1CBD1CB589B232
:104F50008DF8042048F201028DF80530009201AB73
:104F60000222FFF7E4FE1CBD2DE9F0415E4D0E4626
:104F700004001FD04023FF2200211020FFF7E6FF8E
:104F8000022C01D128684662564E00220723403683
:104F9000D1B208200F0602D583EA410100E04900A2
:104FA000401EC9B210F0FF00F4D1B154521CFF2AC8
:104FB000EEDD05E00023BF2219461020FFF7C6FFF3
:104FC00028680475BDE8F08170B54F4D0446012294
:104FD00000212846FFF773FF22460021281FFFF714
:104FE0006EFF022200212846FFF769FFBDE87040EE
:104FF00045480021083036E70021084633E710B560
:10500000FFF7FAFF4149884205D0404910398842EC
:1050100001D0881710BD002010BD2DE9F041324CA1
:105020000646002520680221C57301820575457575
:105030008572C5728562C56205634563C563856314
:10504000FFF7DDFF08B1681EBCE70420FFF7BCFFD7
:1050500080460520FFF7B8FF07460A20FFF7B4FF98
:10506000C0F304412068B8F1000F017203D017B1FA
:1050700009B102F043F82020FFF7A6FF2449884237
:1050800003D121680120487201E020684572F006D2
:1050900004D40620FFF798FF21680860B00604D406
:1050A0000720FFF791FF21684860700604D50820AB
:1050B000FFF78AFF21688872300604D50920FFF7C0
:1050C00083FF2168C8722068C17A09B98521C1723D
:1050D000817A09B9742181721F20FFF775FF216859
:1050E000487317E058210020341000204E4F4E45E1
:1050F00020535049207772697465746F73706977B3
:105100006974686372630A0008000B001203CADE48
:10511000400200101E20FFF757FF10F07F012068AB
:10512000817301D12E218173CAB20021FE48FFF79D
:10513000D2FE002046E710B51E20FFF745FF00F025
:105140007F0010BD40E770B5044680B240F40072A5
:105150004FF4302500212846FFF7B1FEA2B22846C1
:10516000BDE870400021AAE62DE9F047DFF8BC83D6
:105170000E46044600214046FFF775FE82464FF476
:1051800070434FF0FF3200214046FFF7ABFEDFF8DF
:10519000A093182200214846FFF791FE2520FFF733
:1051A000D2FF0220FFF7CFFF4FF4FE70FFF7CBFFD7
:1051B000F0B240F48070FFF7C6FF4FF480763046BF
:1051C000FFF7C1FF0020FFF7BEFF0220FFF7BBFF84
:1051D0004FF4E070FFF7B7FF46EA146060F30F0585
:1051E000C4F3074040F48077C4F3072040F480768E
:1051F000E0B240F48070FFF7A6FF3046FFF7A3FF50
:105200003846FFF7A0FF28B2FFF79DFF0020FFF709
:105210009AFF3A20FFF797FF40F2FF10FFF793FF46
:105220004FF48570FFF78FFF0020FFF78CFF3A20C7
:10523000FFF789FF40F20110FFF785FF4FF430249C
:10524000022200212046FFF73AFE002211462046A6
:10525000FFF735FE0220FEF78EFE3A20FFF773FFC0
:105260004FF48170FFF76FFF022200212046FFF705
:1052700026FE002211462046FFF721FE002211469D
:105280004846FFF71CFE52464046BDE8F047002165
:1052900007E670B50D460446FFF766FF2846FFF7A0
:1052A00093FEA04201D1002070BD4FF0FF3070BDD1
:1052B0002DE9F041074615460E464FF0FF30002419
:1052C00008E0381981B256F82400FFF7E2FF002801
:1052D00002D1641CAC42F4DB74E62DE9F041954C3C
:1052E000012818D0271F25056FF48076022819D0D1
:1052F0000123FF2200213846FFF728FE2B463246C5
:1053000000212046FFF7EEFD00237F2202212046E8
:10531000BDE8F0411AE6052001F017FF0123FF2246
:105320001946F4E70323FF2200213846FFF70EFE5B
:105330002B46324600212046FFF7D4FD00237F2272
:1053400002212046FFF702FEBDE8F041052001F0F2
:10535000FCBE784800214FF480334FF0FF32001F2D
:10536000C0E575480068407B7047724B083308B150
:10537000724A00E0724A0221184692E570B504466E
:105380004FF4A02500212846FFF76DFD6D4900EA86
:105390000102E00701D042F48022A00701D542F4C7
:1053A0001042600701D542F012022846BDE8704065
:1053B000002176E55D4800212838A1E45E480068B8
:1053C000807A70475C480068C07A70475A48006825
:1053D0000068704758480068406870472DE9F04100
:1053E000524F0D4606464FF0FF343F1D4FF0082345
:1053F000224600213846FFF775FD4FF06013224624
:1054000000213846FFF76EFD4FF4E020052E0DD049
:105410004D4B22460021FFF765FD002D08D0BDE869
:10542000F04142480021494A30383AE5484BF0E71C
:10543000C8E570B504460D46012001F086FE002146
:105440002846FFF7CBFF284601F0AEFEC4F30B025F
:1054500000214048FFF733FD3E4C03230C3CFF2264
:1054600000212046FFF772FD00212046FFF748FC8F
:10547000C007F9D101F092FE002001F076FE052070
:1054800001F063FE294800212838FFF739FC00F0BD
:105490003F0070BD70B50446008990B1052500211C
:1054A0002D48FFF72DFCC00700D00925208929468B
:1054B000FFF7BFFF6268BDE8704027480021083849
:1054C000EFE41A48227800212838FFF704FDF1E7BD
:1054D00010B50446026800212048FFF7E2FC1F488F
:1054E0000021001D6268FFF7DCFC1C480021083029
:1054F000A268FFF7D6FC1948E2680021BDE8104019
:105500000C30CEE410B50446026814480021103077
:10551000FFF7C7FC1148002114306268FFF7C1FC97
:105520000E48002118301BE0140009004400070059
:1055300008000B0008001100341000207488D20409
:105540001000D200C00FE0FF001C0002001101019A
:10555000003C00021C000800140001000C000200C6
:10556000A268FFF79EFCE268BDE810400021FD48FC
:1055700097E4FC480123FF2200212438E6E42DE9CA
:10558000F04705283FD0FB4EFA4D3F36F64ADFF88C
:10559000DC93DFF8DC83F74F77352C460021F648A3
:1055A000FFF77FFCF4484A460021001DFFF779FC15
:1055B000F148424600210830FFF773FCEE483A46B6
:1055C00000210C30FFF76DFCEB4832460021103013
:1055D000FFF767FCE8482A4600211430FFF761FC1A
:1055E000E548224600211830FFF75BFCE248E34A19
:1055F00000211C38FFF755FCBDE8F047DE480021CC
:10560000DF4A18384DE4E14FE14DE14CC0377F35BA
:10561000DC4ADFF87493DFF87483DD4EBF34BDE7F6
:1056200070B5DC4D05242868007A08B101F066FDEC
:1056300014220121D848FFF74EFC18220021D74838
:10564000FFF72FFCD548E8220021001DFFF729FCB9
:1056500028686FF4C052007C00F0E001D048202997
:1056600002D0602908D102E04FF4806301E04FF4DA
:1056700040630021FFF736FC0021CA48FFF703FC16
:10568000F82101EAD00109390F290ED8C00700D04E
:1056900009242868407A0128204602D0BDE87040DD
:1056A0006DE7BDE8704001F03DBD70BD10B504462A
:1056B000B8486FF4304200210068447504F00B00D4
:1056C00003031020FFF70EFCE0438107B64805D026
:1056D000B64ABDE810400021FFF7E3BBB44AF8E743
:1056E0002DE9F0419F4AB34F0024273A214638461E
:1056F000FFF7D7FB1023FF2200213846FFF726FCD7
:10570000DFF8B082002508F11408661E1420FEF7A9
:10571000C9FB00214046FFF7F3FA012804D06D1CB5
:10572000EDB2032DF2D33446002211463846FFF77E
:10573000D2FB012200214046FFF7CDFB0123FF22CF
:1057400002213846FFF702FC9A4800210830FFF793
:105750008AFB6FF06045A84200D13446954800218D
:105760001030FFF780FBA84200D13446204629E4E0
:105770002DE9F041884D0446083D01280CD1002157
:105780002846FFF780FB064640F205134FF6FF72EE
:1057900000212846FFF7C6FBFFF7A2FF0746012CB2
:1057A00005D10023324619462846FFF7BBFB384691
:1057B00008E4024601212820FFF78DBB2DE9F05FA8
:1057C000044690F800800079182802D8E07818285C
:1057D00001D9012000E000208346E079012864D04F
:1057E000002082466078012863D004285FD0052815
:1057F00063D007285FD04FF48075DFF89891D9F80F
:105800000060308A20F0E0003082E0793073217B44
:105810000120891C884087B2F80007F0B3FD664973
:1058200007F08CFB07F007FE7082E07A7075607BF2
:10583000E17A000401F00B0140EA0133207A2021D3
:1058400001EA4010034343EA0A035C4A00211020A6
:10585000FFF748FB5FEA0B00594EDFF844B16FF4E5
:10586000C05A2CD0D9F800004FF440635246018A48
:1058700041F06001018200215846FFF733FB40F2FE
:1058800006320021B01FFFF70CFB00221146301F2B
:10589000FFF707FB4B4A00213046FFF702FB7D2252
:1058A0000021301DFFF717FB38E0102099E7202575
:1058B000A3E74025A1E748259FE780259DE7E07AFB
:1058C000A8B1607B404901281CD0D8B1207B0422BC
:1058D00031F81000102101F079FC00F07F0305EB96
:1058E000C7054FF6807202213046FFF71BFBFF2DE4
:1058F0000DDDD9F800004FF48063018A41F02001EA
:10590000018206E0207B032231F81000E2E74FF429
:10591000A053524600215846FFF7E4FA4FF4C02541
:10592000A378FC2200212846FFF710FB7F1EFAB265
:1059300000214FF40030FFF7CEFA607807284DD0F1
:105940005FF00000FFF735FFE07AC043810716489B
:1059500046D0164A0021FFF7A4FA124E0021304625
:1059600034E0000028000200FEA8020036AC02006D
:10597000FEA502003EAF0200380003004002001006
:1059800089A46D1BFDC001003EC40100BEC601001C
:1059900036CF010034100020500007000C001F001B
:1059A00008000B00140001000C0006004C585FAF0B
:1059B000CC355FAF0C0004006666663FCF4FFCFF3E
:1059C00012000E000A5A0C000CFE0008FFF74BFAFA
:1059D0006FF30C00B8F1090F04D005E00820B1E71F
:1059E000F84AB7E740F0010021794FF4F85202EA93
:1059F00001210143E0780622C00641EA1060617986
:105A000002EA4102024300213046FFF74AFAA07938
:105A10006178800240EA01336FF47442002124204F
:105A2000FFF760FAB4F8090010B98120A4F8090062
:105A3000B4F8092002212846FFF741FAE2484FF462
:105A40001025B8F1090F42D0E04A0021FFF729FAEA
:105A500041F63C7200212846FFF731FADA48142259
:105A600001213430FFF737FAD7480E220221001FF8
:105A7000FFF731FA81220021D548FFF72CFA0222E4
:105A800000214420FFF727FA0120FFF726FC00251C
:105A90000120FEF706FA00214420FFF731F98007C4
:105AA00026D52079CB4C09380F282ED8D9F80000FC
:105AB000407A012824D04046FFF761FD4FF4C843E7
:105AC00048F2FF1200212046FFF72CFA23E0C24AD9
:105AD0000021FFF7E6F940F63C7200212846FFF767
